{
  "contractName": "Donation",
  "abi": [
    {
      "inputs": [],
      "payable": false,
      "stateMutability": "nonpayable",
      "type": "constructor"
    },
    {
      "constant": true,
      "inputs": [],
      "name": "donatur",
      "outputs": [
        {
          "internalType": "address",
          "name": "",
          "type": "address"
        }
      ],
      "payable": false,
      "stateMutability": "view",
      "type": "function"
    },
    {
      "constant": true,
      "inputs": [],
      "name": "money",
      "outputs": [
        {
          "internalType": "uint256",
          "name": "",
          "type": "uint256"
        }
      ],
      "payable": false,
      "stateMutability": "view",
      "type": "function"
    },
    {
      "constant": true,
      "inputs": [],
      "name": "useless_variable",
      "outputs": [
        {
          "internalType": "string",
          "name": "",
          "type": "string"
        }
      ],
      "payable": false,
      "stateMutability": "view",
      "type": "function"
    },
    {
      "constant": false,
      "inputs": [
        {
          "internalType": "string",
          "name": "param",
          "type": "string"
        }
      ],
      "name": "change_useless_variable",
      "outputs": [],
      "payable": false,
      "stateMutability": "nonpayable",
      "type": "function"
    },
    {
      "constant": false,
      "inputs": [],
      "name": "donate",
      "outputs": [],
      "payable": true,
      "stateMutability": "payable",
      "type": "function"
    },
    {
      "constant": false,
      "inputs": [],
      "name": "receivdonation",
      "outputs": [],
      "payable": false,
      "stateMutability": "nonpayable",
      "type": "function"
    }
  ],
  "bytecode": "0x608060405234801561001057600080fd5b5033600160006101000a81548173ffffffffffffffffffffffffffffffffffffffff021916908373ffffffffffffffffffffffffffffffffffffffff1602179055506040518060400160405280600f81526020017f446f6e6174696f6e20737472696e6700000000000000000000000000000000008152506003908051906020019061009d9291906100a3565b50610148565b828054600181600116156101000203166002900490600052602060002090601f016020900481019282601f106100e457805160ff1916838001178555610112565b82800160010185558215610112579182015b828111156101115782518255916020019190600101906100f6565b5b50905061011f9190610123565b5090565b61014591905b80821115610141576000816000905550600101610129565b5090565b90565b6104c6806101576000396000f3fe6080604052600436106100555760003560e01c8063173b30101461005a5780634ddd108a146100b1578063620205c5146100dc5780639afa0625146101a4578063ced0456914610234578063ed88c68e1461024b575b600080fd5b34801561006657600080fd5b5061006f610255565b604051808273ffffffffffffffffffffffffffffffffffffffff1673ffffffffffffffffffffffffffffffffffffffff16815260200191505060405180910390f35b3480156100bd57600080fd5b506100c661027a565b6040518082815260200191505060405180910390f35b3480156100e857600080fd5b506101a2600480360360208110156100ff57600080fd5b810190808035906020019064010000000081111561011c57600080fd5b82018360208201111561012e57600080fd5b8035906020019184600183028401116401000000008311171561015057600080fd5b91908080601f016020809104026020016040519081016040528093929190818152602001838380828437600081840152601f19601f820116905080830192505050505050509192919290505050610280565b005b3480156101b057600080fd5b506101b961029a565b6040518080602001828103825283818151815260200191508051906020019080838360005b838110156101f95780820151818401526020810190506101de565b50505050905090810190601f1680156102265780820380516001836020036101000a031916815260200191505b509250505060405180910390f35b34801561024057600080fd5b50610249610338565b005b6102536103a3565b005b6000809054906101000a900473ffffffffffffffffffffffffffffffffffffffff1681565b60025481565b80600390805190602001906102969291906103ec565b5050565b60038054600181600116156101000203166002900480601f0160208091040260200160405190810160405280929190818152602001828054600181600116156101000203166002900480156103305780601f1061030557610100808354040283529160200191610330565b820191906000526020600020905b81548152906001019060200180831161031357829003601f168201915b505050505081565b600160009054906101000a900473ffffffffffffffffffffffffffffffffffffffff1673ffffffffffffffffffffffffffffffffffffffff166108fc479081150290604051600060405180830381858888f193505050501580156103a0573d6000803e3d6000fd5b50565b336000806101000a81548173ffffffffffffffffffffffffffffffffffffffff021916908373ffffffffffffffffffffffffffffffffffffffff16021790555034600281905550565b828054600181600116156101000203166002900490600052602060002090601f016020900481019282601f1061042d57805160ff191683800117855561045b565b8280016001018555821561045b579182015b8281111561045a57825182559160200191906001019061043f565b5b509050610468919061046c565b5090565b61048e91905b8082111561048a576000816000905550600101610472565b5090565b9056fea265627a7a723158209110ec8370159f78d2da112bb67b3593ef7a9cbb19ea8af04c402c0505afde8a64736f6c63430005100032",
  "source": "pragma solidity >=0.4.21 <0.7.0;\r\n\r\ncontract Donation{\r\n    address public donatur;\r\n    address payable donatee;\r\n    uint public money;\r\n    string public useless_variable;\r\n\r\n    constructor() public{\r\n        donatee=msg.sender;\r\n        useless_variable=\"Donation string\";\r\n    }\r\n    function change_useless_variable(string memory param)public{\r\n        useless_variable=param;\r\n    }\r\n    function donate() public payable{\r\n        donatur=msg.sender;\r\n        money=msg.value;\r\n    }\r\n\r\n    function receivdonation() public{\r\n        donatee.transfer(address(this).balance);\r\n    }\r\n\r\n    \r\n}",
  "sourcePath": "C:\\Users\\shibaken\\Desktop\\git\\HandsOnBlockchain\\first_contract\\contracts\\donation.sol",
  "compiler": {
    "name": "solc",
    "version": "0.5.16+commit.9c3226ce.Emscripten.clang"
  },
  "schemaVersion": "3.0.23",
  "updatedAt": "2020-03-04T06:44:47.290Z",
  "devdoc": {
    "methods": {}
  },
  "userdoc": {
    "methods": {}
  }
}